{
  "_format": "hh-sol-artifact-1",
  "contractName": "Arnen",
  "sourceName": "contracts/Arnen.sol",
  "abi": [
    {
      "inputs": [
        {
          "internalType": "address",
          "name": "_addr",
          "type": "address"
        }
      ],
      "stateMutability": "payable",
      "type": "constructor"
    },
    {
      "anonymous": false,
      "inputs": [
        {
          "indexed": true,
          "internalType": "address",
          "name": "owner",
          "type": "address"
        },
        {
          "indexed": true,
          "internalType": "address",
          "name": "approved",
          "type": "address"
        },
        {
          "indexed": true,
          "internalType": "uint256",
          "name": "tokenId",
          "type": "uint256"
        }
      ],
      "name": "Approval",
      "type": "event"
    },
    {
      "anonymous": false,
      "inputs": [
        {
          "indexed": true,
          "internalType": "address",
          "name": "owner",
          "type": "address"
        },
        {
          "indexed": true,
          "internalType": "address",
          "name": "operator",
          "type": "address"
        },
        {
          "indexed": false,
          "internalType": "bool",
          "name": "approved",
          "type": "bool"
        }
      ],
      "name": "ApprovalForAll",
      "type": "event"
    },
    {
      "anonymous": false,
      "inputs": [
        {
          "indexed": true,
          "internalType": "address",
          "name": "_beneficiary",
          "type": "address"
        },
        {
          "indexed": false,
          "internalType": "uint256",
          "name": "_amount",
          "type": "uint256"
        },
        {
          "indexed": false,
          "internalType": "uint256",
          "name": "_time",
          "type": "uint256"
        }
      ],
      "name": "CreatorPaid",
      "type": "event"
    },
    {
      "anonymous": false,
      "inputs": [
        {
          "indexed": true,
          "internalType": "address",
          "name": "previousOwner",
          "type": "address"
        },
        {
          "indexed": true,
          "internalType": "address",
          "name": "newOwner",
          "type": "address"
        }
      ],
      "name": "OwnershipTransferred",
      "type": "event"
    },
    {
      "anonymous": false,
      "inputs": [
        {
          "indexed": true,
          "internalType": "address",
          "name": "_beneficiary",
          "type": "address"
        },
        {
          "indexed": false,
          "internalType": "uint256",
          "name": "_amount",
          "type": "uint256"
        },
        {
          "indexed": false,
          "internalType": "bytes",
          "name": "_data",
          "type": "bytes"
        }
      ],
      "name": "SentTipped",
      "type": "event"
    },
    {
      "anonymous": false,
      "inputs": [
        {
          "indexed": true,
          "internalType": "address",
          "name": "_address",
          "type": "address"
        },
        {
          "indexed": false,
          "internalType": "uint256",
          "name": "_amount",
          "type": "uint256"
        }
      ],
      "name": "Tipped",
      "type": "event"
    },
    {
      "anonymous": false,
      "inputs": [
        {
          "indexed": true,
          "internalType": "address",
          "name": "from",
          "type": "address"
        },
        {
          "indexed": true,
          "internalType": "address",
          "name": "to",
          "type": "address"
        },
        {
          "indexed": true,
          "internalType": "uint256",
          "name": "tokenId",
          "type": "uint256"
        }
      ],
      "name": "Transfer",
      "type": "event"
    },
    {
      "stateMutability": "payable",
      "type": "fallback"
    },
    {
      "inputs": [
        {
          "internalType": "address",
          "name": "to",
          "type": "address"
        },
        {
          "internalType": "uint256",
          "name": "tokenId",
          "type": "uint256"
        }
      ],
      "name": "approve",
      "outputs": [],
      "stateMutability": "nonpayable",
      "type": "function"
    },
    {
      "inputs": [
        {
          "internalType": "address",
          "name": "owner",
          "type": "address"
        }
      ],
      "name": "balanceOf",
      "outputs": [
        {
          "internalType": "uint256",
          "name": "",
          "type": "uint256"
        }
      ],
      "stateMutability": "view",
      "type": "function"
    },
    {
      "inputs": [],
      "name": "checkTokenHolder",
      "outputs": [
        {
          "internalType": "bool",
          "name": "",
          "type": "bool"
        }
      ],
      "stateMutability": "view",
      "type": "function"
    },
    {
      "inputs": [],
      "name": "checkTokenValidity",
      "outputs": [
        {
          "internalType": "bool",
          "name": "status",
          "type": "bool"
        }
      ],
      "stateMutability": "view",
      "type": "function"
    },
    {
      "inputs": [],
      "name": "closeSale",
      "outputs": [],
      "stateMutability": "nonpayable",
      "type": "function"
    },
    {
      "inputs": [],
      "name": "distributeTip",
      "outputs": [],
      "stateMutability": "payable",
      "type": "function"
    },
    {
      "inputs": [
        {
          "internalType": "uint256",
          "name": "tokenId",
          "type": "uint256"
        }
      ],
      "name": "getApproved",
      "outputs": [
        {
          "internalType": "address",
          "name": "",
          "type": "address"
        }
      ],
      "stateMutability": "view",
      "type": "function"
    },
    {
      "inputs": [],
      "name": "getRandomNumber",
      "outputs": [
        {
          "internalType": "bytes32",
          "name": "requestId",
          "type": "bytes32"
        }
      ],
      "stateMutability": "nonpayable",
      "type": "function"
    },
    {
      "inputs": [],
      "name": "getTokenHolder",
      "outputs": [
        {
          "components": [
            {
              "internalType": "address",
              "name": "holderAddress",
              "type": "address"
            },
            {
              "internalType": "uint256",
              "name": "tokenId",
              "type": "uint256"
            },
            {
              "internalType": "uint256",
              "name": "txTime",
              "type": "uint256"
            },
            {
              "internalType": "bool",
              "name": "isTokenHolder",
              "type": "bool"
            },
            {
              "internalType": "bool",
              "name": "active",
              "type": "bool"
            },
            {
              "internalType": "uint256",
              "name": "mode",
              "type": "uint256"
            },
            {
              "internalType": "uint256",
              "name": "validity",
              "type": "uint256"
            }
          ],
          "internalType": "struct Arnen.TokenHolder",
          "name": "",
          "type": "tuple"
        }
      ],
      "stateMutability": "view",
      "type": "function"
    },
    {
      "inputs": [],
      "name": "getTokenHoldersCount",
      "outputs": [
        {
          "internalType": "uint256",
          "name": "",
          "type": "uint256"
        }
      ],
      "stateMutability": "view",
      "type": "function"
    },
    {
      "inputs": [
        {
          "internalType": "uint256",
          "name": "",
          "type": "uint256"
        }
      ],
      "name": "holderAddresses",
      "outputs": [
        {
          "internalType": "address",
          "name": "",
          "type": "address"
        }
      ],
      "stateMutability": "view",
      "type": "function"
    },
    {
      "inputs": [
        {
          "internalType": "address",
          "name": "",
          "type": "address"
        },
        {
          "internalType": "uint256",
          "name": "",
          "type": "uint256"
        }
      ],
      "name": "holderTokendIds",
      "outputs": [
        {
          "internalType": "uint256",
          "name": "",
          "type": "uint256"
        }
      ],
      "stateMutability": "view",
      "type": "function"
    },
    {
      "inputs": [
        {
          "internalType": "address",
          "name": "owner",
          "type": "address"
        },
        {
          "internalType": "address",
          "name": "operator",
          "type": "address"
        }
      ],
      "name": "isApprovedForAll",
      "outputs": [
        {
          "internalType": "bool",
          "name": "",
          "type": "bool"
        }
      ],
      "stateMutability": "view",
      "type": "function"
    },
    {
      "inputs": [
        {
          "internalType": "uint256",
          "name": "_validity",
          "type": "uint256"
        },
        {
          "internalType": "enum Arnen.Mode",
          "name": "_mode",
          "type": "uint8"
        },
        {
          "internalType": "string",
          "name": "tokenURI",
          "type": "string"
        }
      ],
      "name": "mint",
      "outputs": [],
      "stateMutability": "payable",
      "type": "function"
    },
    {
      "inputs": [],
      "name": "mintPricePerDay",
      "outputs": [
        {
          "internalType": "uint256",
          "name": "",
          "type": "uint256"
        }
      ],
      "stateMutability": "view",
      "type": "function"
    },
    {
      "inputs": [],
      "name": "name",
      "outputs": [
        {
          "internalType": "string",
          "name": "",
          "type": "string"
        }
      ],
      "stateMutability": "view",
      "type": "function"
    },
    {
      "inputs": [],
      "name": "nftMode",
      "outputs": [
        {
          "internalType": "enum Arnen.Mode",
          "name": "",
          "type": "uint8"
        }
      ],
      "stateMutability": "view",
      "type": "function"
    },
    {
      "inputs": [],
      "name": "openNFTSale",
      "outputs": [],
      "stateMutability": "nonpayable",
      "type": "function"
    },
    {
      "inputs": [],
      "name": "owner",
      "outputs": [
        {
          "internalType": "address",
          "name": "",
          "type": "address"
        }
      ],
      "stateMutability": "view",
      "type": "function"
    },
    {
      "inputs": [
        {
          "internalType": "uint256",
          "name": "tokenId",
          "type": "uint256"
        }
      ],
      "name": "ownerOf",
      "outputs": [
        {
          "internalType": "address",
          "name": "",
          "type": "address"
        }
      ],
      "stateMutability": "view",
      "type": "function"
    },
    {
      "inputs": [],
      "name": "randomResult",
      "outputs": [
        {
          "internalType": "uint256",
          "name": "",
          "type": "uint256"
        }
      ],
      "stateMutability": "view",
      "type": "function"
    },
    {
      "inputs": [
        {
          "internalType": "bytes32",
          "name": "requestId",
          "type": "bytes32"
        },
        {
          "internalType": "uint256",
          "name": "randomness",
          "type": "uint256"
        }
      ],
      "name": "rawFulfillRandomness",
      "outputs": [],
      "stateMutability": "nonpayable",
      "type": "function"
    },
    {
      "inputs": [
        {
          "internalType": "uint256",
          "name": "_validity",
          "type": "uint256"
        },
        {
          "internalType": "enum Arnen.Mode",
          "name": "_mode",
          "type": "uint8"
        },
        {
          "internalType": "string",
          "name": "tokenURI",
          "type": "string"
        }
      ],
      "name": "renewNft",
      "outputs": [],
      "stateMutability": "payable",
      "type": "function"
    },
    {
      "inputs": [],
      "name": "renounceOwnership",
      "outputs": [],
      "stateMutability": "nonpayable",
      "type": "function"
    },
    {
      "inputs": [
        {
          "internalType": "address",
          "name": "from",
          "type": "address"
        },
        {
          "internalType": "address",
          "name": "to",
          "type": "address"
        },
        {
          "internalType": "uint256",
          "name": "tokenId",
          "type": "uint256"
        }
      ],
      "name": "safeTransferFrom",
      "outputs": [],
      "stateMutability": "nonpayable",
      "type": "function"
    },
    {
      "inputs": [
        {
          "internalType": "address",
          "name": "from",
          "type": "address"
        },
        {
          "internalType": "address",
          "name": "to",
          "type": "address"
        },
        {
          "internalType": "uint256",
          "name": "tokenId",
          "type": "uint256"
        },
        {
          "internalType": "bytes",
          "name": "_data",
          "type": "bytes"
        }
      ],
      "name": "safeTransferFrom",
      "outputs": [],
      "stateMutability": "nonpayable",
      "type": "function"
    },
    {
      "inputs": [],
      "name": "saleIsActive",
      "outputs": [
        {
          "internalType": "bool",
          "name": "",
          "type": "bool"
        }
      ],
      "stateMutability": "view",
      "type": "function"
    },
    {
      "inputs": [
        {
          "internalType": "address",
          "name": "operator",
          "type": "address"
        },
        {
          "internalType": "bool",
          "name": "approved",
          "type": "bool"
        }
      ],
      "name": "setApprovalForAll",
      "outputs": [],
      "stateMutability": "nonpayable",
      "type": "function"
    },
    {
      "inputs": [
        {
          "internalType": "bytes4",
          "name": "interfaceId",
          "type": "bytes4"
        }
      ],
      "name": "supportsInterface",
      "outputs": [
        {
          "internalType": "bool",
          "name": "",
          "type": "bool"
        }
      ],
      "stateMutability": "view",
      "type": "function"
    },
    {
      "inputs": [],
      "name": "symbol",
      "outputs": [
        {
          "internalType": "string",
          "name": "",
          "type": "string"
        }
      ],
      "stateMutability": "view",
      "type": "function"
    },
    {
      "inputs": [
        {
          "internalType": "address",
          "name": "_address",
          "type": "address"
        }
      ],
      "name": "tipCreator",
      "outputs": [
        {
          "internalType": "bool",
          "name": "",
          "type": "bool"
        }
      ],
      "stateMutability": "payable",
      "type": "function"
    },
    {
      "inputs": [],
      "name": "tipPlatform",
      "outputs": [
        {
          "internalType": "bool",
          "name": "",
          "type": "bool"
        }
      ],
      "stateMutability": "payable",
      "type": "function"
    },
    {
      "inputs": [
        {
          "internalType": "address",
          "name": "",
          "type": "address"
        }
      ],
      "name": "tokenHolders",
      "outputs": [
        {
          "internalType": "address",
          "name": "holderAddress",
          "type": "address"
        },
        {
          "internalType": "uint256",
          "name": "tokenId",
          "type": "uint256"
        },
        {
          "internalType": "uint256",
          "name": "txTime",
          "type": "uint256"
        },
        {
          "internalType": "bool",
          "name": "isTokenHolder",
          "type": "bool"
        },
        {
          "internalType": "bool",
          "name": "active",
          "type": "bool"
        },
        {
          "internalType": "uint256",
          "name": "mode",
          "type": "uint256"
        },
        {
          "internalType": "uint256",
          "name": "validity",
          "type": "uint256"
        }
      ],
      "stateMutability": "view",
      "type": "function"
    },
    {
      "inputs": [
        {
          "internalType": "uint256",
          "name": "tokenId",
          "type": "uint256"
        }
      ],
      "name": "tokenURI",
      "outputs": [
        {
          "internalType": "string",
          "name": "",
          "type": "string"
        }
      ],
      "stateMutability": "view",
      "type": "function"
    },
    {
      "inputs": [],
      "name": "totalAmountTipped",
      "outputs": [
        {
          "internalType": "uint256",
          "name": "",
          "type": "uint256"
        }
      ],
      "stateMutability": "view",
      "type": "function"
    },
    {
      "inputs": [
        {
          "internalType": "address",
          "name": "from",
          "type": "address"
        },
        {
          "internalType": "address",
          "name": "to",
          "type": "address"
        },
        {
          "internalType": "uint256",
          "name": "tokenId",
          "type": "uint256"
        }
      ],
      "name": "transferFrom",
      "outputs": [],
      "stateMutability": "nonpayable",
      "type": "function"
    },
    {
      "inputs": [
        {
          "internalType": "address",
          "name": "newOwner",
          "type": "address"
        }
      ],
      "name": "transferOwnership",
      "outputs": [],
      "stateMutability": "nonpayable",
      "type": "function"
    },
    {
      "inputs": [],
      "name": "updateNftValidity",
      "outputs": [],
      "stateMutability": "nonpayable",
      "type": "function"
    },
    {
      "stateMutability": "payable",
      "type": "receive"
    }
  ],
  "bytecode": "0x60c06040526001600960146101000a81548160ff02191690831515021790555065fea894898000600f556000601055604051620060c2380380620060c28339818101604052810190620000539190620003f0565b73b3dccb4cf7a26f6cf6b120cf5a73875b7bbc655b7301be23585060835e02b77ef475b0cc51aa1e07096040518060400160405280600581526020017f41524e454e0000000000000000000000000000000000000000000000000000008152506040518060400160405280600381526020017f41524e000000000000000000000000000000000000000000000000000000000081525081600090805190602001906200010192919062000329565b5080600190805190602001906200011a92919062000329565b5050506200013d620001316200024560201b60201c565b6200024d60201b60201c565b8173ffffffffffffffffffffffffffffffffffffffff1660a08173ffffffffffffffffffffffffffffffffffffffff1660601b815250508073ffffffffffffffffffffffffffffffffffffffff1660808173ffffffffffffffffffffffffffffffffffffffff1660601b815250505050620001c4600d6200031360201b620029421760201c565b7f2ed0feb3e7fd2022120aa84fab1945545a9f2ffc9076fd6156fa96eaff4c131160001b6011819055506702c68af0bb14000060128190555080600960006101000a81548173ffffffffffffffffffffffffffffffffffffffff021916908373ffffffffffffffffffffffffffffffffffffffff16021790555050620004cf565b600033905090565b6000600760009054906101000a900473ffffffffffffffffffffffffffffffffffffffff16905081600760006101000a81548173ffffffffffffffffffffffffffffffffffffffff021916908373ffffffffffffffffffffffffffffffffffffffff1602179055508173ffffffffffffffffffffffffffffffffffffffff168173ffffffffffffffffffffffffffffffffffffffff167f8be0079c531659141344cd1fd0a4f28419497f9722a3daafe3b4186f6b6457e060405160405180910390a35050565b6001816000016000828254019250508190555050565b828054620003379062000450565b90600052602060002090601f0160209004810192826200035b5760008555620003a7565b82601f106200037657805160ff1916838001178555620003a7565b82800160010185558215620003a7579182015b82811115620003a657825182559160200191906001019062000389565b5b509050620003b69190620003ba565b5090565b5b80821115620003d5576000816000905550600101620003bb565b5090565b600081519050620003ea81620004b5565b92915050565b6000602082840312156200040357600080fd5b60006200041384828501620003d9565b91505092915050565b6000620004298262000430565b9050919050565b600073ffffffffffffffffffffffffffffffffffffffff82169050919050565b600060028204905060018216806200046957607f821691505b6020821081141562000480576200047f62000486565b5b50919050565b7f4e487b7100000000000000000000000000000000000000000000000000000000600052602260045260246000fd5b620004c0816200041c565b8114620004cc57600080fd5b50565b60805160601c60a05160601c615bb96200050960003960008181611dc301526134fa01526000818161258701526134be0152615bb96000f3fe6080604052600436106102295760003560e01c80638da5cb5b11610123578063c8e1f79d116100ab578063e55cc7e21161006f578063e55cc7e2146107b2578063e985e9c5146107ef578063eb8d24441461082c578063ee55efee14610857578063f2fde38b1461086e57610230565b8063c8e1f79d146106fe578063cf24ccdf14610729578063d859ae7714610740578063dbdff2c11461075c578063e4fc03781461078757610230565b8063a3f5abe3116100f2578063a3f5abe314610617578063b88d4fde14610642578063b9dd10781461066b578063ba8e355714610696578063c87b56dd146106c157610230565b80638da5cb5b1461056f57806394985ddd1461059a57806395d89b41146105c3578063a22cb465146105ee57610230565b806342842e0e116101b15780636352211e116101755780636352211e1461046b578063638b5e53146104a857806365c4e4aa146104eb57806370a082311461051b578063715018a61461055857610230565b806342842e0e146103c657806342cfdeee146103ef578063468f3dcd146104065780634e2fc2011461043157806352f6510e1461044d57610230565b8063095ea7b3116101f8578063095ea7b3146102e15780630f8c9e281461030a578063178dfb941461034757806323b872dd1461037257806342619f661461039b57610230565b806301ffc9a7146102325780630438ecf31461026f57806306fdde0314610279578063081812fc146102a457610230565b3661023057005b005b34801561023e57600080fd5b506102596004803603810190610254919061416f565b610897565b6040516102669190614a38565b60405180910390f35b610277610979565b005b34801561028557600080fd5b5061028e610c38565b60405161029b9190614af7565b60405180910390f35b3480156102b057600080fd5b506102cb60048036038101906102c691906141c1565b610cca565b6040516102d89190614924565b60405180910390f35b3480156102ed57600080fd5b50610308600480360381019061030391906140ce565b610d4f565b005b34801561031657600080fd5b50610331600480360381019061032c91906141c1565b610e67565b60405161033e9190614924565b60405180910390f35b34801561035357600080fd5b5061035c610ea6565b6040516103699190614adc565b60405180910390f35b34801561037e57600080fd5b5061039960048036038101906103949190613fc8565b610eb9565b005b3480156103a757600080fd5b506103b0610f19565b6040516103bd9190614ed4565b60405180910390f35b3480156103d257600080fd5b506103ed60048036038101906103e89190613fc8565b610f1f565b005b3480156103fb57600080fd5b50610404610f3f565b005b34801561041257600080fd5b5061041b611350565b6040516104289190614ed4565b60405180910390f35b61044b60048036038101906104469190614267565b61135d565b005b610455611962565b6040516104629190614a38565b60405180910390f35b34801561047757600080fd5b50610492600480360381019061048d91906141c1565b611a1c565b60405161049f9190614924565b60405180910390f35b3480156104b457600080fd5b506104cf60048036038101906104ca9190613f63565b611ace565b6040516104e297969594939291906149c9565b60405180910390f35b61050560048036038101906105009190613f63565b611b4a565b6040516105129190614a38565b60405180910390f35b34801561052757600080fd5b50610542600480360381019061053d9190613f63565b611c57565b60405161054f9190614ed4565b60405180910390f35b34801561056457600080fd5b5061056d611d0f565b005b34801561057b57600080fd5b50610584611d97565b6040516105919190614924565b60405180910390f35b3480156105a657600080fd5b506105c160048036038101906105bc9190614133565b611dc1565b005b3480156105cf57600080fd5b506105d8611e5d565b6040516105e59190614af7565b60405180910390f35b3480156105fa57600080fd5b5061061560048036038101906106109190614092565b611eef565b005b34801561062357600080fd5b5061062c611f05565b6040516106399190614ed4565b60405180910390f35b34801561064e57600080fd5b5061066960048036038101906106649190614017565b611f0b565b005b34801561067757600080fd5b50610680611f6d565b60405161068d9190614ed4565b60405180910390f35b3480156106a257600080fd5b506106ab611f73565b6040516106b89190614eb9565b60405180910390f35b3480156106cd57600080fd5b506106e860048036038101906106e391906141c1565b612084565b6040516106f59190614af7565b60405180910390f35b34801561070a57600080fd5b506107136121d6565b6040516107209190614a38565b60405180910390f35b34801561073557600080fd5b5061073e61222d565b005b61075a60048036038101906107559190614267565b6122c6565b005b34801561076857600080fd5b50610771612580565b60405161077e9190614a53565b60405180910390f35b34801561079357600080fd5b5061079c612682565b6040516107a99190614a38565b60405180910390f35b3480156107be57600080fd5b506107d960048036038101906107d491906140ce565b6126d9565b6040516107e69190614ed4565b60405180910390f35b3480156107fb57600080fd5b5061081660048036038101906108119190613f8c565b61270a565b6040516108239190614a38565b60405180910390f35b34801561083857600080fd5b5061084161279e565b60405161084e9190614a38565b60405180910390f35b34801561086357600080fd5b5061086c6127b1565b005b34801561087a57600080fd5b5061089560048036038101906108909190613f63565b61284a565b005b60007f80ac58cd000000000000000000000000000000000000000000000000000000007bffffffffffffffffffffffffffffffffffffffffffffffffffffffff1916827bffffffffffffffffffffffffffffffffffffffffffffffffffffffff1916148061096257507f5b5e139f000000000000000000000000000000000000000000000000000000007bffffffffffffffffffffffffffffffffffffffffffffffffffffffff1916827bffffffffffffffffffffffffffffffffffffffffffffffffffffffff1916145b80610972575061097182612958565b5b9050919050565b6109816129c2565b73ffffffffffffffffffffffffffffffffffffffff1661099f611d97565b73ffffffffffffffffffffffffffffffffffffffff16146109f5576040517f08c379a00000000000000000000000000000000000000000000000000000000081526004016109ec90614dd9565b60405180910390fd5b601054341115610a3a576040517f08c379a0000000000000000000000000000000000000000000000000000000008152600401610a3190614c99565b60405180910390fd5b6000600c60135481548110610a78577f4e487b7100000000000000000000000000000000000000000000000000000000600052603260045260246000fd5b9060005260206000200160009054906101000a900473ffffffffffffffffffffffffffffffffffffffff1690506000606434601e610ab691906150d0565b610ac0919061509f565b90506000808373ffffffffffffffffffffffffffffffffffffffff1683604051610ae99061490f565b60006040518083038185875af1925050503d8060008114610b26576040519150601f19603f3d011682016040523d82523d6000602084013e610b2b565b606091505b50915091503460106000828254610b42919061512a565b92505081905550610b51611d97565b73ffffffffffffffffffffffffffffffffffffffff166108fc8434610b76919061512a565b9081150290604051600060405180830381858888f19350505050158015610ba1573d6000803e3d6000fd5b508373ffffffffffffffffffffffffffffffffffffffff167f6018fc0ca41b47c35ce50423a870b30b26c6f178836921503119a6dd39fad8c08483604051610bea929190614eef565b60405180910390a281610c32576040517f08c379a0000000000000000000000000000000000000000000000000000000008152600401610c2990614bf9565b60405180910390fd5b50505050565b606060008054610c4790615243565b80601f0160208091040260200160405190810160405280929190818152602001828054610c7390615243565b8015610cc05780601f10610c9557610100808354040283529160200191610cc0565b820191906000526020600020905b815481529060010190602001808311610ca357829003601f168201915b5050505050905090565b6000610cd5826129ca565b610d14576040517f08c379a0000000000000000000000000000000000000000000000000000000008152600401610d0b90614db9565b60405180910390fd5b6004600083815260200190815260200160002060009054906101000a900473ffffffffffffffffffffffffffffffffffffffff169050919050565b6000610d5a82611a1c565b90508073ffffffffffffffffffffffffffffffffffffffff168373ffffffffffffffffffffffffffffffffffffffff161415610dcb576040517f08c379a0000000000000000000000000000000000000000000000000000000008152600401610dc290614e59565b60405180910390fd5b8073ffffffffffffffffffffffffffffffffffffffff16610dea6129c2565b73ffffffffffffffffffffffffffffffffffffffff161480610e195750610e1881610e136129c2565b61270a565b5b610e58576040517f08c379a0000000000000000000000000000000000000000000000000000000008152600401610e4f90614cf9565b60405180910390fd5b610e628383612a36565b505050565b600c8181548110610e7757600080fd5b906000526020600020016000915054906101000a900473ffffffffffffffffffffffffffffffffffffffff1681565b600e60009054906101000a900460ff1681565b610eca610ec46129c2565b82612aef565b610f09576040517f08c379a0000000000000000000000000000000000000000000000000000000008152600401610f0090614e79565b60405180910390fd5b610f14838383612bcd565b505050565b60135481565b610f3a83838360405180602001604052806000815250611f0b565b505050565b610f476129c2565b73ffffffffffffffffffffffffffffffffffffffff16610f65611d97565b73ffffffffffffffffffffffffffffffffffffffff1614610fbb576040517f08c379a0000000000000000000000000000000000000000000000000000000008152600401610fb290614dd9565b60405180910390fd5b6000600b60003373ffffffffffffffffffffffffffffffffffffffff1673ffffffffffffffffffffffffffffffffffffffff1681526020019081526020016000206005015490506000600b60003373ffffffffffffffffffffffffffffffffffffffff1673ffffffffffffffffffffffffffffffffffffffff1681526020019081526020016000206004015414156111b8576000600b60003373ffffffffffffffffffffffffffffffffffffffff1673ffffffffffffffffffffffffffffffffffffffff168152602001908152602001600020600201544261109d919061512a565b905062015180816110ae919061509f565b905081811061115f576000600b60003373ffffffffffffffffffffffffffffffffffffffff1673ffffffffffffffffffffffffffffffffffffffff168152602001908152602001600020600501819055506000600b60003373ffffffffffffffffffffffffffffffffffffffff1673ffffffffffffffffffffffffffffffffffffffff16815260200190815260200160002060030160016101000a81548160ff0219169083151502179055506111b2565b808261116b919061512a565b600b60003373ffffffffffffffffffffffffffffffffffffffff1673ffffffffffffffffffffffffffffffffffffffff168152602001908152602001600020600501819055505b50611306565b6001600b60003373ffffffffffffffffffffffffffffffffffffffff1673ffffffffffffffffffffffffffffffffffffffff168152602001908152602001600020600401541415611305576001600b60003373ffffffffffffffffffffffffffffffffffffffff1673ffffffffffffffffffffffffffffffffffffffff1681526020019081526020016000206005016000828254611256919061512a565b925050819055506000600b60003373ffffffffffffffffffffffffffffffffffffffff1673ffffffffffffffffffffffffffffffffffffffff168152602001908152602001600020600501541415611304576000600b60003373ffffffffffffffffffffffffffffffffffffffff1673ffffffffffffffffffffffffffffffffffffffff16815260200190815260200160002060030160016101000a81548160ff0219169083151502179055505b5b5b42600b60003373ffffffffffffffffffffffffffffffffffffffff1673ffffffffffffffffffffffffffffffffffffffff1681526020019081526020016000206002018190555050565b6000600c80549050905090565b600960149054906101000a900460ff166113ac576040517f08c379a00000000000000000000000000000000000000000000000000000000081526004016113a390614e39565b60405180910390fd5b81600e60006101000a81548160ff021916908360018111156113f7577f4e487b7100000000000000000000000000000000000000000000000000000000600052602160045260246000fd5b02179055506000600e60009054906101000a900460ff166001811115611446577f4e487b7100000000000000000000000000000000000000000000000000000000600052602160045260246000fd5b14156116a75782600f5461145a91906150d0565b34101561149c576040517f08c379a000000000000000000000000000000000000000000000000000000000815260040161149390614c19565b60405180910390fd5b6114af336114aa600d612e34565b612e42565b6114c26114bc600d612e34565b82612e60565b33600b60003373ffffffffffffffffffffffffffffffffffffffff1673ffffffffffffffffffffffffffffffffffffffff16815260200190815260200160002060000160006101000a81548173ffffffffffffffffffffffffffffffffffffffff021916908373ffffffffffffffffffffffffffffffffffffffff16021790555061154d600d612e34565b600b60003373ffffffffffffffffffffffffffffffffffffffff1673ffffffffffffffffffffffffffffffffffffffff1681526020019081526020016000206001018190555042600b60003373ffffffffffffffffffffffffffffffffffffffff1673ffffffffffffffffffffffffffffffffffffffff168152602001908152602001600020600201819055506001600b60003373ffffffffffffffffffffffffffffffffffffffff1673ffffffffffffffffffffffffffffffffffffffff16815260200190815260200160002060030160006101000a81548160ff021916908315150217905550600c339080600181540180825580915050600190039060005260206000200160009091909190916101000a81548173ffffffffffffffffffffffffffffffffffffffff021916908373ffffffffffffffffffffffffffffffffffffffff1602179055506116a2600d612942565b611954565b6001600e60009054906101000a900460ff1660018111156116f1577f4e487b7100000000000000000000000000000000000000000000000000000000600052602160045260246000fd5b1415611953578266060a24181e400061170a91906150d0565b34101561174c576040517f08c379a000000000000000000000000000000000000000000000000000000000815260040161174390614c19565b60405180910390fd5b61175f3361175a600d612e34565b612e42565b61177261176c600d612e34565b82612e60565b33600b60003373ffffffffffffffffffffffffffffffffffffffff1673ffffffffffffffffffffffffffffffffffffffff16815260200190815260200160002060000160006101000a81548173ffffffffffffffffffffffffffffffffffffffff021916908373ffffffffffffffffffffffffffffffffffffffff1602179055506117fd600d612e34565b600b60003373ffffffffffffffffffffffffffffffffffffffff1673ffffffffffffffffffffffffffffffffffffffff1681526020019081526020016000206001018190555042600b60003373ffffffffffffffffffffffffffffffffffffffff1673ffffffffffffffffffffffffffffffffffffffff168152602001908152602001600020600201819055506001600b60003373ffffffffffffffffffffffffffffffffffffffff1673ffffffffffffffffffffffffffffffffffffffff16815260200190815260200160002060030160006101000a81548160ff021916908315150217905550600c339080600181540180825580915050600190039060005260206000200160009091909190916101000a81548173ffffffffffffffffffffffffffffffffffffffff021916908373ffffffffffffffffffffffffffffffffffffffff160217905550611952600d612942565b5b5b61195d34612ed4565b505050565b600066013e52b9abe0003410156119ae576040517f08c379a00000000000000000000000000000000000000000000000000000000081526004016119a590614e99565b60405180910390fd5b34601060008282546119c09190615049565b925050819055503373ffffffffffffffffffffffffffffffffffffffff167f905516bf815c273f240e1d48d78ea7db3f1f0d00b912fc69522caf0ea70450a234604051611a0d9190614ed4565b60405180910390a26001905090565b6000806002600084815260200190815260200160002060009054906101000a900473ffffffffffffffffffffffffffffffffffffffff169050600073ffffffffffffffffffffffffffffffffffffffff168173ffffffffffffffffffffffffffffffffffffffff161415611ac5576040517f08c379a0000000000000000000000000000000000000000000000000000000008152600401611abc90614d39565b60405180910390fd5b80915050919050565b600b6020528060005260406000206000915090508060000160009054906101000a900473ffffffffffffffffffffffffffffffffffffffff16908060010154908060020154908060030160009054906101000a900460ff16908060030160019054906101000a900460ff16908060040154908060050154905087565b60008082905060003411611b93576040517f08c379a0000000000000000000000000000000000000000000000000000000008152600401611b8a90614bd9565b60405180910390fd5b60008173ffffffffffffffffffffffffffffffffffffffff1634604051611bb99061490f565b60006040518083038185875af1925050503d8060008114611bf6576040519150601f19603f3d011682016040523d82523d6000602084013e611bfb565b606091505b505090503373ffffffffffffffffffffffffffffffffffffffff167f905516bf815c273f240e1d48d78ea7db3f1f0d00b912fc69522caf0ea70450a234604051611c459190614ed4565b60405180910390a28092505050919050565b60008073ffffffffffffffffffffffffffffffffffffffff168273ffffffffffffffffffffffffffffffffffffffff161415611cc8576040517f08c379a0000000000000000000000000000000000000000000000000000000008152600401611cbf90614d19565b60405180910390fd5b600360008373ffffffffffffffffffffffffffffffffffffffff1673ffffffffffffffffffffffffffffffffffffffff168152602001908152602001600020549050919050565b611d176129c2565b73ffffffffffffffffffffffffffffffffffffffff16611d35611d97565b73ffffffffffffffffffffffffffffffffffffffff1614611d8b576040517f08c379a0000000000000000000000000000000000000000000000000000000008152600401611d8290614dd9565b60405180910390fd5b611d956000613139565b565b6000600760009054906101000a900473ffffffffffffffffffffffffffffffffffffffff16905090565b7f000000000000000000000000000000000000000000000000000000000000000073ffffffffffffffffffffffffffffffffffffffff163373ffffffffffffffffffffffffffffffffffffffff1614611e4f576040517f08c379a0000000000000000000000000000000000000000000000000000000008152600401611e4690614e19565b60405180910390fd5b611e5982826131ff565b5050565b606060018054611e6c90615243565b80601f0160208091040260200160405190810160405280929190818152602001828054611e9890615243565b8015611ee55780601f10611eba57610100808354040283529160200191611ee5565b820191906000526020600020905b815481529060010190602001808311611ec857829003601f168201915b5050505050905090565b611f01611efa6129c2565b8383613233565b5050565b60105481565b611f1c611f166129c2565b83612aef565b611f5b576040517f08c379a0000000000000000000000000000000000000000000000000000000008152600401611f5290614e79565b60405180910390fd5b611f67848484846133a0565b50505050565b600f5481565b611f7b613c31565b6000600b60003373ffffffffffffffffffffffffffffffffffffffff1673ffffffffffffffffffffffffffffffffffffffff1681526020019081526020016000209050806040518060e00160405290816000820160009054906101000a900473ffffffffffffffffffffffffffffffffffffffff1673ffffffffffffffffffffffffffffffffffffffff1673ffffffffffffffffffffffffffffffffffffffff16815260200160018201548152602001600282015481526020016003820160009054906101000a900460ff161515151581526020016003820160019054906101000a900460ff161515151581526020016004820154815260200160058201548152505091505090565b606061208f826129ca565b6120ce576040517f08c379a00000000000000000000000000000000000000000000000000000000081526004016120c590614d99565b60405180910390fd5b60006006600084815260200190815260200160002080546120ee90615243565b80601f016020809104026020016040519081016040528092919081815260200182805461211a90615243565b80156121675780601f1061213c57610100808354040283529160200191612167565b820191906000526020600020905b81548152906001019060200180831161214a57829003601f168201915b5050505050905060006121786133fc565b905060008151141561218e5781925050506121d1565b6000825111156121c35780826040516020016121ab9291906148eb565b604051602081830303815290604052925050506121d1565b6121cc84613413565b925050505b919050565b6000600b60003373ffffffffffffffffffffffffffffffffffffffff1673ffffffffffffffffffffffffffffffffffffffff16815260200190815260200160002060030160019054906101000a900460ff16905090565b6122356129c2565b73ffffffffffffffffffffffffffffffffffffffff16612253611d97565b73ffffffffffffffffffffffffffffffffffffffff16146122a9576040517f08c379a00000000000000000000000000000000000000000000000000000000081526004016122a090614dd9565b60405180910390fd5b6001600960146101000a81548160ff021916908315150217905550565b600960149054906101000a900460ff16612315576040517f08c379a000000000000000000000000000000000000000000000000000000000815260040161230c90614b39565b60405180910390fd5b81600e60006101000a81548160ff02191690836001811115612360577f4e487b7100000000000000000000000000000000000000000000000000000000600052602160045260246000fd5b021790555061236d612682565b6123ac576040517f08c379a00000000000000000000000000000000000000000000000000000000081526004016123a390614b19565b60405180910390fd5b6000600b60003373ffffffffffffffffffffffffffffffffffffffff1673ffffffffffffffffffffffffffffffffffffffff1681526020019081526020016000206001015490506000600e60009054906101000a900460ff16600181111561243d577f4e487b7100000000000000000000000000000000000000000000000000000000600052602160045260246000fd5b14156124b65783600f5461245191906150d0565b341015612493576040517f08c379a000000000000000000000000000000000000000000000000000000000815260040161248a90614c19565b60405180910390fd5b61249d3382612e42565b6124a78183612e60565b6124b1600d612942565b612571565b6001600e60009054906101000a900460ff166001811115612500577f4e487b7100000000000000000000000000000000000000000000000000000000600052602160045260246000fd5b1415612570578366060a24181e400061251991906150d0565b34101561255b576040517f08c379a000000000000000000000000000000000000000000000000000000000815260040161255290614c19565b60405180910390fd5b6125653382612e42565b61256f8183612e60565b5b5b61257a34612ed4565b50505050565b60006012547f000000000000000000000000000000000000000000000000000000000000000073ffffffffffffffffffffffffffffffffffffffff166370a08231306040518263ffffffff1660e01b81526004016125de9190614924565b60206040518083038186803b1580156125f657600080fd5b505afa15801561260a573d6000803e3d6000fd5b505050506040513d601f19601f8201168201806040525081019061262e91906141ea565b101561266f576040517f08c379a000000000000000000000000000000000000000000000000000000000815260040161266690614cd9565b60405180910390fd5b61267d6011546012546134ba565b905090565b6000600b60003373ffffffffffffffffffffffffffffffffffffffff1673ffffffffffffffffffffffffffffffffffffffff16815260200190815260200160002060030160009054906101000a900460ff16905090565b600a60205281600052604060002081815481106126f557600080fd5b90600052602060002001600091509150505481565b6000600560008473ffffffffffffffffffffffffffffffffffffffff1673ffffffffffffffffffffffffffffffffffffffff16815260200190815260200160002060008373ffffffffffffffffffffffffffffffffffffffff1673ffffffffffffffffffffffffffffffffffffffff16815260200190815260200160002060009054906101000a900460ff16905092915050565b600960149054906101000a900460ff1681565b6127b96129c2565b73ffffffffffffffffffffffffffffffffffffffff166127d7611d97565b73ffffffffffffffffffffffffffffffffffffffff161461282d576040517f08c379a000000000000000000000000000000000000000000000000000000000815260040161282490614dd9565b60405180910390fd5b6000600960146101000a81548160ff021916908315150217905550565b6128526129c2565b73ffffffffffffffffffffffffffffffffffffffff16612870611d97565b73ffffffffffffffffffffffffffffffffffffffff16146128c6576040517f08c379a00000000000000000000000000000000000000000000000000000000081526004016128bd90614dd9565b60405180910390fd5b600073ffffffffffffffffffffffffffffffffffffffff168173ffffffffffffffffffffffffffffffffffffffff161415612936576040517f08c379a000000000000000000000000000000000000000000000000000000000815260040161292d90614b79565b60405180910390fd5b61293f81613139565b50565b6001816000016000828254019250508190555050565b60007f01ffc9a7000000000000000000000000000000000000000000000000000000007bffffffffffffffffffffffffffffffffffffffffffffffffffffffff1916827bffffffffffffffffffffffffffffffffffffffffffffffffffffffff1916149050919050565b600033905090565b60008073ffffffffffffffffffffffffffffffffffffffff166002600084815260200190815260200160002060009054906101000a900473ffffffffffffffffffffffffffffffffffffffff1673ffffffffffffffffffffffffffffffffffffffff1614159050919050565b816004600083815260200190815260200160002060006101000a81548173ffffffffffffffffffffffffffffffffffffffff021916908373ffffffffffffffffffffffffffffffffffffffff160217905550808273ffffffffffffffffffffffffffffffffffffffff16612aa983611a1c565b73ffffffffffffffffffffffffffffffffffffffff167f8c5be1e5ebec7d5bd14f71427d1e84f3dd0314c0f7b2291e5b200ac8c7c3b92560405160405180910390a45050565b6000612afa826129ca565b612b39576040517f08c379a0000000000000000000000000000000000000000000000000000000008152600401612b3090614cb9565b60405180910390fd5b6000612b4483611a1c565b90508073ffffffffffffffffffffffffffffffffffffffff168473ffffffffffffffffffffffffffffffffffffffff161480612bb357508373ffffffffffffffffffffffffffffffffffffffff16612b9b84610cca565b73ffffffffffffffffffffffffffffffffffffffff16145b80612bc45750612bc3818561270a565b5b91505092915050565b8273ffffffffffffffffffffffffffffffffffffffff16612bed82611a1c565b73ffffffffffffffffffffffffffffffffffffffff1614612c43576040517f08c379a0000000000000000000000000000000000000000000000000000000008152600401612c3a90614b99565b60405180910390fd5b600073ffffffffffffffffffffffffffffffffffffffff168273ffffffffffffffffffffffffffffffffffffffff161415612cb3576040517f08c379a0000000000000000000000000000000000000000000000000000000008152600401612caa90614c59565b60405180910390fd5b612cbe83838361361c565b612cc9600082612a36565b6001600360008573ffffffffffffffffffffffffffffffffffffffff1673ffffffffffffffffffffffffffffffffffffffff1681526020019081526020016000206000828254612d19919061512a565b925050819055506001600360008473ffffffffffffffffffffffffffffffffffffffff1673ffffffffffffffffffffffffffffffffffffffff1681526020019081526020016000206000828254612d709190615049565b92505081905550816002600083815260200190815260200160002060006101000a81548173ffffffffffffffffffffffffffffffffffffffff021916908373ffffffffffffffffffffffffffffffffffffffff160217905550808273ffffffffffffffffffffffffffffffffffffffff168473ffffffffffffffffffffffffffffffffffffffff167fddf252ad1be2c89b69c2b068fc378daa952ba7f163c4a11628f55a4df523b3ef60405160405180910390a4612e2f838383613621565b505050565b600081600001549050919050565b612e5c828260405180602001604052806000815250613626565b5050565b612e69826129ca565b612ea8576040517f08c379a0000000000000000000000000000000000000000000000000000000008152600401612e9f90614d59565b60405180910390fd5b80600660008481526020019081526020016000209080519060200190612ecf929190613c88565b505050565b6000600960009054906101000a900473ffffffffffffffffffffffffffffffffffffffff1690506000808273ffffffffffffffffffffffffffffffffffffffff1663180d4f4f856040518263ffffffff1660e01b8152600401612f379190614ed4565b60006040518083038186803b158015612f4f57600080fd5b505afa158015612f63573d6000803e3d6000fd5b505050506040513d6000823e3d601f19601f82011682018060405250810190612f8c9190614213565b9150915060005b8151811015613132576000828281518110612fd7577f4e487b7100000000000000000000000000000000000000000000000000000000600052603260045260246000fd5b60200260200101519050600083838151811061301c577f4e487b7100000000000000000000000000000000000000000000000000000000600052603260045260246000fd5b602002602001015173ffffffffffffffffffffffffffffffffffffffff16856040516130479061490f565b60006040518083038185875af1925050503d8060008114613084576040519150601f19603f3d011682016040523d82523d6000602084013e613089565b606091505b50509050806130cd576040517f08c379a00000000000000000000000000000000000000000000000000000000081526004016130c490614c39565b60405180910390fd5b8173ffffffffffffffffffffffffffffffffffffffff167f3a9ffce7b0ed4c55d4dbe1d0d0ae63a827fdb1b4609e8269ec385143d568c1218642604051613115929190614f1f565b60405180910390a25050808061312a906152a6565b915050612f93565b5050505050565b6000600760009054906101000a900473ffffffffffffffffffffffffffffffffffffffff16905081600760006101000a81548173ffffffffffffffffffffffffffffffffffffffff021916908373ffffffffffffffffffffffffffffffffffffffff1602179055508173ffffffffffffffffffffffffffffffffffffffff168173ffffffffffffffffffffffffffffffffffffffff167f8be0079c531659141344cd1fd0a4f28419497f9722a3daafe3b4186f6b6457e060405160405180910390a35050565b60018061320a611350565b836132159190615303565b61321f919061512a565b6132299190615049565b6013819055505050565b8173ffffffffffffffffffffffffffffffffffffffff168373ffffffffffffffffffffffffffffffffffffffff1614156132a2576040517f08c379a000000000000000000000000000000000000000000000000000000000815260040161329990614c79565b60405180910390fd5b80600560008573ffffffffffffffffffffffffffffffffffffffff1673ffffffffffffffffffffffffffffffffffffffff16815260200190815260200160002060008473ffffffffffffffffffffffffffffffffffffffff1673ffffffffffffffffffffffffffffffffffffffff16815260200190815260200160002060006101000a81548160ff0219169083151502179055508173ffffffffffffffffffffffffffffffffffffffff168373ffffffffffffffffffffffffffffffffffffffff167f17307eab39ab6107e8899845ad3d59bd9653f200f220920489ca2b5937696c31836040516133939190614a38565b60405180910390a3505050565b6133ab848484612bcd565b6133b784848484613681565b6133f6576040517f08c379a00000000000000000000000000000000000000000000000000000000081526004016133ed90614b59565b60405180910390fd5b50505050565b606060405180602001604052806000815250905090565b606061341e826129ca565b61345d576040517f08c379a000000000000000000000000000000000000000000000000000000000815260040161345490614df9565b60405180910390fd5b60006134676133fc565b9050600081511161348757604051806020016040528060008152506134b2565b8061349184613818565b6040516020016134a29291906148eb565b6040516020818303038152906040525b915050919050565b60007f000000000000000000000000000000000000000000000000000000000000000073ffffffffffffffffffffffffffffffffffffffff16634000aea07f00000000000000000000000000000000000000000000000000000000000000008486600060405160200161352e929190614a6e565b6040516020818303038152906040526040518463ffffffff1660e01b815260040161355b9392919061498b565b602060405180830381600087803b15801561357557600080fd5b505af1158015613589573d6000803e3d6000fd5b505050506040513d601f19601f820116820180604052508101906135ad919061410a565b5060006135d08460003060086000898152602001908152602001600020546139c5565b9050600160086000868152602001908152602001600020546135f29190615049565b60086000868152602001908152602001600020819055506136138482613a01565b91505092915050565b505050565b505050565b6136308383613a34565b61363d6000848484613681565b61367c576040517f08c379a000000000000000000000000000000000000000000000000000000000815260040161367390614b59565b60405180910390fd5b505050565b60006136a28473ffffffffffffffffffffffffffffffffffffffff16613c0e565b1561380b578373ffffffffffffffffffffffffffffffffffffffff1663150b7a026136cb6129c2565b8786866040518563ffffffff1660e01b81526004016136ed949392919061493f565b602060405180830381600087803b15801561370757600080fd5b505af192505050801561373857506040513d601f19601f820116820180604052508101906137359190614198565b60015b6137bb573d8060008114613768576040519150601f19603f3d011682016040523d82523d6000602084013e61376d565b606091505b506000815114156137b3576040517f08c379a00000000000000000000000000000000000000000000000000000000081526004016137aa90614b59565b60405180910390fd5b805181602001fd5b63150b7a0260e01b7bffffffffffffffffffffffffffffffffffffffffffffffffffffffff1916817bffffffffffffffffffffffffffffffffffffffffffffffffffffffff191614915050613810565b600190505b949350505050565b60606000821415613860576040518060400160405280600181526020017f300000000000000000000000000000000000000000000000000000000000000081525090506139c0565b600082905060005b6000821461389257808061387b906152a6565b915050600a8261388b919061509f565b9150613868565b60008167ffffffffffffffff8111156138d4577f4e487b7100000000000000000000000000000000000000000000000000000000600052604160045260246000fd5b6040519080825280601f01601f1916602001820160405280156139065781602001600182028036833780820191505090505b5090505b600085146139b95760018261391f919061512a565b9150600a8561392e9190615303565b603061393a9190615049565b60f81b818381518110613976577f4e487b7100000000000000000000000000000000000000000000000000000000600052603260045260246000fd5b60200101907effffffffffffffffffffffffffffffffffffffffffffffffffffffffffffff1916908160001a905350600a856139b2919061509f565b945061390a565b8093505050505b919050565b6000848484846040516020016139de9493929190614a97565b6040516020818303038152906040528051906020012060001c9050949350505050565b60008282604051602001613a169291906148bf565b60405160208183030381529060405280519060200120905092915050565b600073ffffffffffffffffffffffffffffffffffffffff168273ffffffffffffffffffffffffffffffffffffffff161415613aa4576040517f08c379a0000000000000000000000000000000000000000000000000000000008152600401613a9b90614d79565b60405180910390fd5b613aad816129ca565b15613aed576040517f08c379a0000000000000000000000000000000000000000000000000000000008152600401613ae490614bb9565b60405180910390fd5b613af96000838361361c565b6001600360008473ffffffffffffffffffffffffffffffffffffffff1673ffffffffffffffffffffffffffffffffffffffff1681526020019081526020016000206000828254613b499190615049565b92505081905550816002600083815260200190815260200160002060006101000a81548173ffffffffffffffffffffffffffffffffffffffff021916908373ffffffffffffffffffffffffffffffffffffffff160217905550808273ffffffffffffffffffffffffffffffffffffffff16600073ffffffffffffffffffffffffffffffffffffffff167fddf252ad1be2c89b69c2b068fc378daa952ba7f163c4a11628f55a4df523b3ef60405160405180910390a4613c0a60008383613621565b5050565b6000808273ffffffffffffffffffffffffffffffffffffffff163b119050919050565b6040518060e00160405280600073ffffffffffffffffffffffffffffffffffffffff168152602001600081526020016000815260200160001515815260200160001515815260200160008152602001600081525090565b828054613c9490615243565b90600052602060002090601f016020900481019282613cb65760008555613cfd565b82601f10613ccf57805160ff1916838001178555613cfd565b82800160010185558215613cfd579182015b82811115613cfc578251825591602001919060010190613ce1565b5b509050613d0a9190613d0e565b5090565b5b80821115613d27576000816000905550600101613d0f565b5090565b6000613d3e613d3984614f6d565b614f48565b90508083825260208201905082856020860282011115613d5d57600080fd5b60005b85811015613d8d5781613d738882613e28565b845260208401935060208301925050600181019050613d60565b5050509392505050565b6000613daa613da584614f99565b614f48565b905082815260208101848484011115613dc257600080fd5b613dcd848285615201565b509392505050565b6000613de8613de384614fca565b614f48565b905082815260208101848484011115613e0057600080fd5b613e0b848285615201565b509392505050565b600081359050613e2281615b00565b92915050565b600081519050613e3781615b00565b92915050565b600082601f830112613e4e57600080fd5b8151613e5e848260208601613d2b565b91505092915050565b600081359050613e7681615b17565b92915050565b600081519050613e8b81615b17565b92915050565b600081359050613ea081615b2e565b92915050565b600081359050613eb581615b45565b92915050565b600081519050613eca81615b45565b92915050565b600082601f830112613ee157600080fd5b8135613ef1848260208601613d97565b91505092915050565b600081359050613f0981615b5c565b92915050565b600082601f830112613f2057600080fd5b8135613f30848260208601613dd5565b91505092915050565b600081359050613f4881615b6c565b92915050565b600081519050613f5d81615b6c565b92915050565b600060208284031215613f7557600080fd5b6000613f8384828501613e13565b91505092915050565b60008060408385031215613f9f57600080fd5b6000613fad85828601613e13565b9250506020613fbe85828601613e13565b9150509250929050565b600080600060608486031215613fdd57600080fd5b6000613feb86828701613e13565b9350506020613ffc86828701613e13565b925050604061400d86828701613f39565b9150509250925092565b6000806000806080858703121561402d57600080fd5b600061403b87828801613e13565b945050602061404c87828801613e13565b935050604061405d87828801613f39565b925050606085013567ffffffffffffffff81111561407a57600080fd5b61408687828801613ed0565b91505092959194509250565b600080604083850312156140a557600080fd5b60006140b385828601613e13565b92505060206140c485828601613e67565b9150509250929050565b600080604083850312156140e157600080fd5b60006140ef85828601613e13565b925050602061410085828601613f39565b9150509250929050565b60006020828403121561411c57600080fd5b600061412a84828501613e7c565b91505092915050565b6000806040838503121561414657600080fd5b600061415485828601613e91565b925050602061416585828601613f39565b9150509250929050565b60006020828403121561418157600080fd5b600061418f84828501613ea6565b91505092915050565b6000602082840312156141aa57600080fd5b60006141b884828501613ebb565b91505092915050565b6000602082840312156141d357600080fd5b60006141e184828501613f39565b91505092915050565b6000602082840312156141fc57600080fd5b600061420a84828501613f4e565b91505092915050565b6000806040838503121561422657600080fd5b600061423485828601613f4e565b925050602083015167ffffffffffffffff81111561425157600080fd5b61425d85828601613e3d565b9150509250929050565b60008060006060848603121561427c57600080fd5b600061428a86828701613f39565b935050602061429b86828701613efa565b925050604084013567ffffffffffffffff8111156142b857600080fd5b6142c486828701613f0f565b9150509250925092565b6142d78161515e565b82525050565b6142e68161515e565b82525050565b6142f581615170565b82525050565b61430481615170565b82525050565b6143138161517c565b82525050565b61432a6143258261517c565b6152ef565b82525050565b600061433b82614ffb565b6143458185615011565b9350614355818560208601615210565b61435e8161541f565b840191505092915050565b614372816151ef565b82525050565b600061438382615006565b61438d818561502d565b935061439d818560208601615210565b6143a68161541f565b840191505092915050565b60006143bc82615006565b6143c6818561503e565b93506143d6818560208601615210565b80840191505092915050565b60006143ef60068361502d565b91506143fa82615430565b602082019050919050565b600061441260068361502d565b915061441d82615459565b602082019050919050565b600061443560328361502d565b915061444082615482565b604082019050919050565b600061445860268361502d565b9150614463826154d1565b604082019050919050565b600061447b60258361502d565b915061448682615520565b604082019050919050565b600061449e601c8361502d565b91506144a98261556f565b602082019050919050565b60006144c160078361502d565b91506144cc82615598565b602082019050919050565b60006144e460068361502d565b91506144ef826155c1565b602082019050919050565b600061450760128361502d565b9150614512826155ea565b602082019050919050565b600061452a60148361502d565b915061453582615613565b602082019050919050565b600061454d60248361502d565b91506145588261563c565b604082019050919050565b600061457060198361502d565b915061457b8261568b565b602082019050919050565b600061459360148361502d565b915061459e826156b4565b602082019050919050565b60006145b6602c8361502d565b91506145c1826156dd565b604082019050919050565b60006145d9600f8361502d565b91506145e48261572c565b602082019050919050565b60006145fc60388361502d565b915061460782615755565b604082019050919050565b600061461f602a8361502d565b915061462a826157a4565b604082019050919050565b600061464260298361502d565b915061464d826157f3565b604082019050919050565b6000614665602e8361502d565b915061467082615842565b604082019050919050565b600061468860208361502d565b915061469382615891565b602082019050919050565b60006146ab60318361502d565b91506146b6826158ba565b604082019050919050565b60006146ce602c8361502d565b91506146d982615909565b604082019050919050565b60006146f160208361502d565b91506146fc82615958565b602082019050919050565b6000614714602f8361502d565b915061471f82615981565b604082019050919050565b6000614737601f8361502d565b9150614742826159d0565b602082019050919050565b600061475a600b8361502d565b9150614765826159f9565b602082019050919050565b600061477d60218361502d565b915061478882615a22565b604082019050919050565b60006147a0600083615022565b91506147ab82615a71565b600082019050919050565b60006147c360318361502d565b91506147ce82615a74565b604082019050919050565b60006147e660118361502d565b91506147f182615ac3565b602082019050919050565b60e08201600082015161481260008501826142ce565b506020820151614825602085018261488a565b506040820151614838604085018261488a565b50606082015161484b60608501826142ec565b50608082015161485e60808501826142ec565b5060a082015161487160a085018261488a565b5060c082015161488460c085018261488a565b50505050565b614893816151e5565b82525050565b6148a2816151e5565b82525050565b6148b96148b4826151e5565b6152f9565b82525050565b60006148cb8285614319565b6020820191506148db82846148a8565b6020820191508190509392505050565b60006148f782856143b1565b915061490382846143b1565b91508190509392505050565b600061491a82614793565b9150819050919050565b600060208201905061493960008301846142dd565b92915050565b600060808201905061495460008301876142dd565b61496160208301866142dd565b61496e6040830185614899565b81810360608301526149808184614330565b905095945050505050565b60006060820190506149a060008301866142dd565b6149ad6020830185614899565b81810360408301526149bf8184614330565b9050949350505050565b600060e0820190506149de600083018a6142dd565b6149eb6020830189614899565b6149f86040830188614899565b614a0560608301876142fb565b614a1260808301866142fb565b614a1f60a0830185614899565b614a2c60c0830184614899565b98975050505050505050565b6000602082019050614a4d60008301846142fb565b92915050565b6000602082019050614a68600083018461430a565b92915050565b6000604082019050614a83600083018561430a565b614a906020830184614899565b9392505050565b6000608082019050614aac600083018761430a565b614ab96020830186614899565b614ac660408301856142dd565b614ad36060830184614899565b95945050505050565b6000602082019050614af16000830184614369565b92915050565b60006020820190508181036000830152614b118184614378565b905092915050565b60006020820190508181036000830152614b32816143e2565b9050919050565b60006020820190508181036000830152614b5281614405565b9050919050565b60006020820190508181036000830152614b7281614428565b9050919050565b60006020820190508181036000830152614b928161444b565b9050919050565b60006020820190508181036000830152614bb28161446e565b9050919050565b60006020820190508181036000830152614bd281614491565b9050919050565b60006020820190508181036000830152614bf2816144b4565b9050919050565b60006020820190508181036000830152614c12816144d7565b9050919050565b60006020820190508181036000830152614c32816144fa565b9050919050565b60006020820190508181036000830152614c528161451d565b9050919050565b60006020820190508181036000830152614c7281614540565b9050919050565b60006020820190508181036000830152614c9281614563565b9050919050565b60006020820190508181036000830152614cb281614586565b9050919050565b60006020820190508181036000830152614cd2816145a9565b9050919050565b60006020820190508181036000830152614cf2816145cc565b9050919050565b60006020820190508181036000830152614d12816145ef565b9050919050565b60006020820190508181036000830152614d3281614612565b9050919050565b60006020820190508181036000830152614d5281614635565b9050919050565b60006020820190508181036000830152614d7281614658565b9050919050565b60006020820190508181036000830152614d928161467b565b9050919050565b60006020820190508181036000830152614db28161469e565b9050919050565b60006020820190508181036000830152614dd2816146c1565b9050919050565b60006020820190508181036000830152614df2816146e4565b9050919050565b60006020820190508181036000830152614e1281614707565b9050919050565b60006020820190508181036000830152614e328161472a565b9050919050565b60006020820190508181036000830152614e528161474d565b9050919050565b60006020820190508181036000830152614e7281614770565b9050919050565b60006020820190508181036000830152614e92816147b6565b9050919050565b60006020820190508181036000830152614eb2816147d9565b9050919050565b600060e082019050614ece60008301846147fc565b92915050565b6000602082019050614ee96000830184614899565b92915050565b6000604082019050614f046000830185614899565b8181036020830152614f168184614330565b90509392505050565b6000604082019050614f346000830185614899565b614f416020830184614899565b9392505050565b6000614f52614f63565b9050614f5e8282615275565b919050565b6000604051905090565b600067ffffffffffffffff821115614f8857614f876153f0565b5b602082029050602081019050919050565b600067ffffffffffffffff821115614fb457614fb36153f0565b5b614fbd8261541f565b9050602081019050919050565b600067ffffffffffffffff821115614fe557614fe46153f0565b5b614fee8261541f565b9050602081019050919050565b600081519050919050565b600081519050919050565b600082825260208201905092915050565b600081905092915050565b600082825260208201905092915050565b600081905092915050565b6000615054826151e5565b915061505f836151e5565b9250827fffffffffffffffffffffffffffffffffffffffffffffffffffffffffffffffff0382111561509457615093615334565b5b828201905092915050565b60006150aa826151e5565b91506150b5836151e5565b9250826150c5576150c4615363565b5b828204905092915050565b60006150db826151e5565b91506150e6836151e5565b9250817fffffffffffffffffffffffffffffffffffffffffffffffffffffffffffffffff048311821515161561511f5761511e615334565b5b828202905092915050565b6000615135826151e5565b9150615140836151e5565b92508282101561515357615152615334565b5b828203905092915050565b6000615169826151c5565b9050919050565b60008115159050919050565b6000819050919050565b60007fffffffff0000000000000000000000000000000000000000000000000000000082169050919050565b60008190506151c082615aec565b919050565b600073ffffffffffffffffffffffffffffffffffffffff82169050919050565b6000819050919050565b60006151fa826151b2565b9050919050565b82818337600083830152505050565b60005b8381101561522e578082015181840152602081019050615213565b8381111561523d576000848401525b50505050565b6000600282049050600182168061525b57607f821691505b6020821081141561526f5761526e6153c1565b5b50919050565b61527e8261541f565b810181811067ffffffffffffffff8211171561529d5761529c6153f0565b5b80604052505050565b60006152b1826151e5565b91507fffffffffffffffffffffffffffffffffffffffffffffffffffffffffffffffff8214156152e4576152e3615334565b5b600182019050919050565b6000819050919050565b6000819050919050565b600061530e826151e5565b9150615319836151e5565b92508261532957615328615363565b5b828206905092915050565b7f4e487b7100000000000000000000000000000000000000000000000000000000600052601160045260246000fd5b7f4e487b7100000000000000000000000000000000000000000000000000000000600052601260045260246000fd5b7f4e487b7100000000000000000000000000000000000000000000000000000000600052602160045260246000fd5b7f4e487b7100000000000000000000000000000000000000000000000000000000600052602260045260246000fd5b7f4e487b7100000000000000000000000000000000000000000000000000000000600052604160045260246000fd5b6000601f19601f8301169050919050565b7f4e6f204e46540000000000000000000000000000000000000000000000000000600082015250565b7f436c6f7365640000000000000000000000000000000000000000000000000000600082015250565b7f4552433732313a207472616e7366657220746f206e6f6e20455243373231526560008201527f63656976657220696d706c656d656e7465720000000000000000000000000000602082015250565b7f4f776e61626c653a206e6577206f776e657220697320746865207a65726f206160008201527f6464726573730000000000000000000000000000000000000000000000000000602082015250565b7f4552433732313a207472616e736665722066726f6d20696e636f72726563742060008201527f6f776e6572000000000000000000000000000000000000000000000000000000602082015250565b7f4552433732313a20746f6b656e20616c7265616479206d696e74656400000000600082015250565b7f4164642054697000000000000000000000000000000000000000000000000000600082015250565b7f4661696c65640000000000000000000000000000000000000000000000000000600082015250565b7f496e73756666696369656e742046756e64730000000000000000000000000000600082015250565b7f4661696c656420746f2073656e64204574686572000000000000000000000000600082015250565b7f4552433732313a207472616e7366657220746f20746865207a65726f2061646460008201527f7265737300000000000000000000000000000000000000000000000000000000602082015250565b7f4552433732313a20617070726f766520746f2063616c6c657200000000000000600082015250565b7f496e7375666669656369656e7420416d6f756e74000000000000000000000000600082015250565b7f4552433732313a206f70657261746f7220717565727920666f72206e6f6e657860008201527f697374656e7420746f6b656e0000000000000000000000000000000000000000602082015250565b7f4e6f7420656e6f756768204c494e4b0000000000000000000000000000000000600082015250565b7f4552433732313a20617070726f76652063616c6c6572206973206e6f74206f7760008201527f6e6572206e6f7220617070726f76656420666f7220616c6c0000000000000000602082015250565b7f4552433732313a2062616c616e636520717565727920666f7220746865207a6560008201527f726f206164647265737300000000000000000000000000000000000000000000602082015250565b7f4552433732313a206f776e657220717565727920666f72206e6f6e657869737460008201527f656e7420746f6b656e0000000000000000000000000000000000000000000000602082015250565b7f45524337323155524953746f726167653a2055524920736574206f66206e6f6e60008201527f6578697374656e7420746f6b656e000000000000000000000000000000000000602082015250565b7f4552433732313a206d696e7420746f20746865207a65726f2061646472657373600082015250565b7f45524337323155524953746f726167653a2055524920717565727920666f722060008201527f6e6f6e6578697374656e7420746f6b656e000000000000000000000000000000602082015250565b7f4552433732313a20617070726f76656420717565727920666f72206e6f6e657860008201527f697374656e7420746f6b656e0000000000000000000000000000000000000000602082015250565b7f4f776e61626c653a2063616c6c6572206973206e6f7420746865206f776e6572600082015250565b7f4552433732314d657461646174613a2055524920717565727920666f72206e6f60008201527f6e6578697374656e7420746f6b656e0000000000000000000000000000000000602082015250565b7f4f6e6c7920565246436f6f7264696e61746f722063616e2066756c66696c6c00600082015250565b7f53616c6520436c6f736564000000000000000000000000000000000000000000600082015250565b7f4552433732313a20617070726f76616c20746f2063757272656e74206f776e6560008201527f7200000000000000000000000000000000000000000000000000000000000000602082015250565b50565b7f4552433732313a207472616e736665722063616c6c6572206973206e6f74206f60008201527f776e6572206e6f7220617070726f766564000000000000000000000000000000602082015250565b7f62656c6f77206d696e696d756d20746970000000000000000000000000000000600082015250565b60028110615afd57615afc615392565b5b50565b615b098161515e565b8114615b1457600080fd5b50565b615b2081615170565b8114615b2b57600080fd5b50565b615b378161517c565b8114615b4257600080fd5b50565b615b4e81615186565b8114615b5957600080fd5b50565b60028110615b6957600080fd5b50565b615b75816151e5565b8114615b8057600080fd5b5056fea2646970667358221220ddfb0b935c0bf48752869b133bed026ce5ee9334c33138d46984e65dd26f06eb64736f6c63430008040033",
  "linkReferences": {},
  "deployedLinkReferences": {}
}