{
  "_format": "hh-sol-artifact-1",
  "contractName": "Contents",
  "sourceName": "contracts/Contents.sol",
  "abi": [
    {
      "anonymous": false,
      "inputs": [
        {
          "indexed": true,
          "internalType": "uint256",
          "name": "_creatorId",
          "type": "uint256"
        },
        {
          "indexed": false,
          "internalType": "string",
          "name": "_title",
          "type": "string"
        },
        {
          "indexed": false,
          "internalType": "uint256",
          "name": "_timestamp",
          "type": "uint256"
        }
      ],
      "name": "NewContent",
      "type": "event"
    },
    {
      "anonymous": false,
      "inputs": [
        {
          "indexed": true,
          "internalType": "uint256",
          "name": "_creatorId",
          "type": "uint256"
        }
      ],
      "name": "NewCreator",
      "type": "event"
    },
    {
      "anonymous": false,
      "inputs": [
        {
          "indexed": true,
          "internalType": "uint256",
          "name": "_creatorId",
          "type": "uint256"
        },
        {
          "indexed": false,
          "internalType": "string",
          "name": "_title",
          "type": "string"
        },
        {
          "indexed": false,
          "internalType": "uint256",
          "name": "_timestamp",
          "type": "uint256"
        }
      ],
      "name": "NewStream",
      "type": "event"
    },
    {
      "inputs": [
        {
          "internalType": "string",
          "name": "_title",
          "type": "string"
        },
        {
          "internalType": "string",
          "name": "_image",
          "type": "string"
        },
        {
          "internalType": "string",
          "name": "_text",
          "type": "string"
        }
      ],
      "name": "addContent",
      "outputs": [],
      "stateMutability": "nonpayable",
      "type": "function"
    },
    {
      "inputs": [
        {
          "internalType": "string",
          "name": "_name",
          "type": "string"
        },
        {
          "internalType": "string",
          "name": "_niche",
          "type": "string"
        },
        {
          "internalType": "string",
          "name": "_avater",
          "type": "string"
        }
      ],
      "name": "addCreator",
      "outputs": [
        {
          "internalType": "uint256",
          "name": "",
          "type": "uint256"
        }
      ],
      "stateMutability": "nonpayable",
      "type": "function"
    },
    {
      "inputs": [
        {
          "internalType": "string",
          "name": "_title",
          "type": "string"
        },
        {
          "internalType": "string",
          "name": "_playbackUrl",
          "type": "string"
        }
      ],
      "name": "addStream",
      "outputs": [],
      "stateMutability": "nonpayable",
      "type": "function"
    },
    {
      "inputs": [
        {
          "internalType": "uint256",
          "name": "",
          "type": "uint256"
        }
      ],
      "name": "contents",
      "outputs": [
        {
          "internalType": "string",
          "name": "title",
          "type": "string"
        },
        {
          "internalType": "string",
          "name": "image",
          "type": "string"
        },
        {
          "internalType": "string",
          "name": "text",
          "type": "string"
        },
        {
          "internalType": "uint256",
          "name": "creatorId",
          "type": "uint256"
        }
      ],
      "stateMutability": "view",
      "type": "function"
    },
    {
      "inputs": [
        {
          "internalType": "uint256",
          "name": "",
          "type": "uint256"
        }
      ],
      "name": "creators",
      "outputs": [
        {
          "internalType": "uint256",
          "name": "id",
          "type": "uint256"
        },
        {
          "internalType": "address",
          "name": "creatorAddress",
          "type": "address"
        },
        {
          "internalType": "string",
          "name": "creatorName",
          "type": "string"
        },
        {
          "internalType": "string",
          "name": "niche",
          "type": "string"
        },
        {
          "internalType": "string",
          "name": "avatar",
          "type": "string"
        },
        {
          "internalType": "uint256",
          "name": "contentCount",
          "type": "uint256"
        }
      ],
      "stateMutability": "view",
      "type": "function"
    },
    {
      "inputs": [
        {
          "internalType": "uint256",
          "name": "_id",
          "type": "uint256"
        }
      ],
      "name": "getContent",
      "outputs": [
        {
          "components": [
            {
              "internalType": "string",
              "name": "title",
              "type": "string"
            },
            {
              "internalType": "string",
              "name": "image",
              "type": "string"
            },
            {
              "internalType": "string",
              "name": "text",
              "type": "string"
            },
            {
              "internalType": "uint256",
              "name": "creatorId",
              "type": "uint256"
            }
          ],
          "internalType": "struct Contents.Content",
          "name": "",
          "type": "tuple"
        }
      ],
      "stateMutability": "view",
      "type": "function"
    },
    {
      "inputs": [],
      "name": "getCreator",
      "outputs": [
        {
          "components": [
            {
              "internalType": "uint256",
              "name": "id",
              "type": "uint256"
            },
            {
              "internalType": "address",
              "name": "creatorAddress",
              "type": "address"
            },
            {
              "internalType": "string",
              "name": "creatorName",
              "type": "string"
            },
            {
              "internalType": "string",
              "name": "niche",
              "type": "string"
            },
            {
              "internalType": "string",
              "name": "avatar",
              "type": "string"
            },
            {
              "internalType": "uint256",
              "name": "contentCount",
              "type": "uint256"
            }
          ],
          "internalType": "struct Contents.ContentCreator",
          "name": "_creator",
          "type": "tuple"
        }
      ],
      "stateMutability": "view",
      "type": "function"
    },
    {
      "inputs": [
        {
          "internalType": "uint256",
          "name": "_amount",
          "type": "uint256"
        }
      ],
      "name": "getEligibleCreators",
      "outputs": [
        {
          "internalType": "uint256",
          "name": "",
          "type": "uint256"
        },
        {
          "internalType": "address[]",
          "name": "",
          "type": "address[]"
        }
      ],
      "stateMutability": "view",
      "type": "function"
    },
    {
      "inputs": [],
      "name": "getStreams",
      "outputs": [
        {
          "components": [
            {
              "internalType": "string",
              "name": "title",
              "type": "string"
            },
            {
              "internalType": "uint256",
              "name": "creatorId",
              "type": "uint256"
            },
            {
              "internalType": "string",
              "name": "playbackUrl",
              "type": "string"
            }
          ],
          "internalType": "struct Contents.Stream[]",
          "name": "",
          "type": "tuple[]"
        }
      ],
      "stateMutability": "view",
      "type": "function"
    },
    {
      "inputs": [
        {
          "internalType": "uint256",
          "name": "",
          "type": "uint256"
        }
      ],
      "name": "streams",
      "outputs": [
        {
          "internalType": "string",
          "name": "title",
          "type": "string"
        },
        {
          "internalType": "uint256",
          "name": "creatorId",
          "type": "uint256"
        },
        {
          "internalType": "string",
          "name": "playbackUrl",
          "type": "string"
        }
      ],
      "stateMutability": "view",
      "type": "function"
    },
    {
      "inputs": [],
      "name": "viewContents",
      "outputs": [
        {
          "components": [
            {
              "internalType": "string",
              "name": "title",
              "type": "string"
            },
            {
              "internalType": "string",
              "name": "image",
              "type": "string"
            },
            {
              "internalType": "string",
              "name": "text",
              "type": "string"
            },
            {
              "internalType": "uint256",
              "name": "creatorId",
              "type": "uint256"
            }
          ],
          "internalType": "struct Contents.Content[]",
          "name": "",
          "type": "tuple[]"
        }
      ],
      "stateMutability": "view",
      "type": "function"
    }
  ],
  "bytecode": "0x608060405260006001556000600355600060055534801561001f57600080fd5b5061238e8061002f6000396000f3fe608060405234801561001057600080fd5b50600436106100a95760003560e01c80638bccaed5116100715780638bccaed51461017d5780639690366814610199578063aceccc6d146101c9578063b5ecf912146101e5578063cd53d08e14610218578063d04fed631461024d576100a9565b80630b7ad54c146100ae5780630ee2cb10146100de578063180d4f4f146100fc5780634ba5971f1461012d57806364d60d911461014b575b600080fd5b6100c860048036038101906100c391906117f3565b61026b565b6040516100d59190611e1a565b60405180910390f35b6100e66104a1565b6040516100f39190611df8565b60405180910390f35b610116600480360381019061011191906117f3565b61077e565b604051610124929190611ecd565b60405180910390f35b6101356108c4565b6040516101429190611cc5565b60405180910390f35b610165600480360381019061016091906117f3565b610b95565b60405161017493929190611d63565b60405180910390f35b6101976004803603810190610192919061175c565b610ccf565b005b6101b360048036038101906101ae919061175c565b610da6565b6040516101c09190611e3c565b60405180910390f35b6101e360048036038101906101de91906116f0565b610e80565b005b6101ff60048036038101906101fa91906117f3565b610f3f565b60405161020f9493929190611d09565b60405180910390f35b610232600480360381019061022d91906117f3565b611107565b60405161024496959493929190611e57565b60405180910390f35b6102556112fb565b6040516102629190611ce7565b60405180910390f35b61027361153b565b60015482106102b7576040517f08c379a00000000000000000000000000000000000000000000000000000000081526004016102ae90611dd8565b60405180910390fd5b60008060008481526020019081526020016000209050806040518060800160405290816000820180546102e99061219f565b80601f01602080910402602001604051908101604052809291908181526020018280546103159061219f565b80156103625780601f1061033757610100808354040283529160200191610362565b820191906000526020600020905b81548152906001019060200180831161034557829003601f168201915b5050505050815260200160018201805461037b9061219f565b80601f01602080910402602001604051908101604052809291908181526020018280546103a79061219f565b80156103f45780601f106103c9576101008083540402835291602001916103f4565b820191906000526020600020905b8154815290600101906020018083116103d757829003601f168201915b5050505050815260200160028201805461040d9061219f565b80601f01602080910402602001604051908101604052809291908181526020018280546104399061219f565b80156104865780601f1061045b57610100808354040283529160200191610486565b820191906000526020600020905b81548152906001019060200180831161046957829003601f168201915b50505050508152602001600382015481525050915050919050565b6104a9611563565b60005b600354811015610779573373ffffffffffffffffffffffffffffffffffffffff166002600083815260200190815260200160002060010160009054906101000a900473ffffffffffffffffffffffffffffffffffffffff1673ffffffffffffffffffffffffffffffffffffffff16141561076657600260008281526020019081526020016000206040518060c0016040529081600082015481526020016001820160009054906101000a900473ffffffffffffffffffffffffffffffffffffffff1673ffffffffffffffffffffffffffffffffffffffff1673ffffffffffffffffffffffffffffffffffffffff1681526020016002820180546105ae9061219f565b80601f01602080910402602001604051908101604052809291908181526020018280546105da9061219f565b80156106275780601f106105fc57610100808354040283529160200191610627565b820191906000526020600020905b81548152906001019060200180831161060a57829003601f168201915b505050505081526020016003820180546106409061219f565b80601f016020809104026020016040519081016040528092919081815260200182805461066c9061219f565b80156106b95780601f1061068e576101008083540402835291602001916106b9565b820191906000526020600020905b81548152906001019060200180831161069c57829003601f168201915b505050505081526020016004820180546106d29061219f565b80601f01602080910402602001604051908101604052809291908181526020018280546106fe9061219f565b801561074b5780601f106107205761010080835404028352916020019161074b565b820191906000526020600020905b81548152906001019060200180831161072e57829003601f168201915b5050505050815260200160058201548152505091505061077b565b808061077190612202565b9150506104ac565b505b90565b600060606000839050606060005b60035481101561087357600060026000838152602001908152602001600020600501541115610860576002600082815260200190815260200160002060010160009054906101000a900473ffffffffffffffffffffffffffffffffffffffff16828281518110610825577f4e487b7100000000000000000000000000000000000000000000000000000000600052603260045260246000fd5b602002602001019073ffffffffffffffffffffffffffffffffffffffff16908173ffffffffffffffffffffffffffffffffffffffff16815250505b808061086b90612202565b91505061078c565b5060008151141561088c576000819350935050506108bf565b600081516064605f8561089f91906120c7565b6108a99190612096565b6108b39190612096565b90508082945094505050505b915091565b6060600060015467ffffffffffffffff81111561090a577f4e487b7100000000000000000000000000000000000000000000000000000000600052604160045260246000fd5b60405190808252806020026020018201604052801561094357816020015b61093061153b565b8152602001906001900390816109285790505b50905060005b600154811015610b8d5760008060008381526020019081526020016000209050806040518060800160405290816000820180546109859061219f565b80601f01602080910402602001604051908101604052809291908181526020018280546109b19061219f565b80156109fe5780601f106109d3576101008083540402835291602001916109fe565b820191906000526020600020905b8154815290600101906020018083116109e157829003601f168201915b50505050508152602001600182018054610a179061219f565b80601f0160208091040260200160405190810160405280929190818152602001828054610a439061219f565b8015610a905780601f10610a6557610100808354040283529160200191610a90565b820191906000526020600020905b815481529060010190602001808311610a7357829003601f168201915b50505050508152602001600282018054610aa99061219f565b80601f0160208091040260200160405190810160405280929190818152602001828054610ad59061219f565b8015610b225780601f10610af757610100808354040283529160200191610b22565b820191906000526020600020905b815481529060010190602001808311610b0557829003601f168201915b50505050508152602001600382015481525050838381518110610b6e577f4e487b7100000000000000000000000000000000000000000000000000000000600052603260045260246000fd5b6020026020010181905250508080610b8590612202565b915050610949565b508091505090565b6004602052806000526040600020600091509050806000018054610bb89061219f565b80601f0160208091040260200160405190810160405280929190818152602001828054610be49061219f565b8015610c315780601f10610c0657610100808354040283529160200191610c31565b820191906000526020600020905b815481529060010190602001808311610c1457829003601f168201915b505050505090806001015490806002018054610c4c9061219f565b80601f0160208091040260200160405190810160405280929190818152602001828054610c789061219f565b8015610cc55780601f10610c9a57610100808354040283529160200191610cc5565b820191906000526020600020905b815481529060010190602001808311610ca857829003601f168201915b5050505050905083565b600080600060015481526020019081526020016000209050610cef6104a1565b60000151816003018190555083816000019080519060200190610d139291906115af565b5082816001019080519060200190610d2c9291906115af565b5081816002019080519060200190610d459291906115af565b506001806000828254610d589190612040565b9250508190555080600301547ffbd5a799264abc84eddd7e5b4217ecea759923f72470e2cb68572a2324e7df1c8260000142604051610d98929190611da8565b60405180910390a250505050565b600080600260006003548152602001908152602001600020905084816002019080519060200190610dd89291906115af565b5082816004019080519060200190610df19291906115af565b5083816003019080519060200190610e0a9291906115af565b50338160010160006101000a81548173ffffffffffffffffffffffffffffffffffffffff021916908373ffffffffffffffffffffffffffffffffffffffff1602179055506003548160000181905550600160036000828254610e6c9190612040565b925050819055506003549150509392505050565b60006004600060055481526020019081526020016000209050610ea16104a1565b60000151816001018190555082816000019080519060200190610ec59291906115af565b5081816002019080519060200190610ede9291906115af565b50600160056000828254610ef29190612040565b9250508190555080600101547f5e4373a3af0097ba7d70c1d9a92bd32b8bbe38d7681d4009d2388984050978688260000142604051610f32929190611da8565b60405180910390a2505050565b6000602052806000526040600020600091509050806000018054610f629061219f565b80601f0160208091040260200160405190810160405280929190818152602001828054610f8e9061219f565b8015610fdb5780601f10610fb057610100808354040283529160200191610fdb565b820191906000526020600020905b815481529060010190602001808311610fbe57829003601f168201915b505050505090806001018054610ff09061219f565b80601f016020809104026020016040519081016040528092919081815260200182805461101c9061219f565b80156110695780601f1061103e57610100808354040283529160200191611069565b820191906000526020600020905b81548152906001019060200180831161104c57829003601f168201915b50505050509080600201805461107e9061219f565b80601f01602080910402602001604051908101604052809291908181526020018280546110aa9061219f565b80156110f75780601f106110cc576101008083540402835291602001916110f7565b820191906000526020600020905b8154815290600101906020018083116110da57829003601f168201915b5050505050908060030154905084565b60026020528060005260406000206000915090508060000154908060010160009054906101000a900473ffffffffffffffffffffffffffffffffffffffff16908060020180546111569061219f565b80601f01602080910402602001604051908101604052809291908181526020018280546111829061219f565b80156111cf5780601f106111a4576101008083540402835291602001916111cf565b820191906000526020600020905b8154815290600101906020018083116111b257829003601f168201915b5050505050908060030180546111e49061219f565b80601f01602080910402602001604051908101604052809291908181526020018280546112109061219f565b801561125d5780601f106112325761010080835404028352916020019161125d565b820191906000526020600020905b81548152906001019060200180831161124057829003601f168201915b5050505050908060040180546112729061219f565b80601f016020809104026020016040519081016040528092919081815260200182805461129e9061219f565b80156112eb5780601f106112c0576101008083540402835291602001916112eb565b820191906000526020600020905b8154815290600101906020018083116112ce57829003601f168201915b5050505050908060050154905086565b6060600060055467ffffffffffffffff811115611341577f4e487b7100000000000000000000000000000000000000000000000000000000600052604160045260246000fd5b60405190808252806020026020018201604052801561137a57816020015b611367611635565b81526020019060019003908161135f5790505b50905060005b600554811015611533576000600460008381526020019081526020016000209050806040518060600160405290816000820180546113bd9061219f565b80601f01602080910402602001604051908101604052809291908181526020018280546113e99061219f565b80156114365780601f1061140b57610100808354040283529160200191611436565b820191906000526020600020905b81548152906001019060200180831161141957829003601f168201915b50505050508152602001600182015481526020016002820180546114599061219f565b80601f01602080910402602001604051908101604052809291908181526020018280546114859061219f565b80156114d25780601f106114a7576101008083540402835291602001916114d2565b820191906000526020600020905b8154815290600101906020018083116114b557829003601f168201915b505050505081525050838381518110611514577f4e487b7100000000000000000000000000000000000000000000000000000000600052603260045260246000fd5b602002602001018190525050808061152b90612202565b915050611380565b508091505090565b6040518060800160405280606081526020016060815260200160608152602001600081525090565b6040518060c0016040528060008152602001600073ffffffffffffffffffffffffffffffffffffffff168152602001606081526020016060815260200160608152602001600081525090565b8280546115bb9061219f565b90600052602060002090601f0160209004810192826115dd5760008555611624565b82601f106115f657805160ff1916838001178555611624565b82800160010185558215611624579182015b82811115611623578251825591602001919060010190611608565b5b5090506116319190611656565b5090565b60405180606001604052806060815260200160008152602001606081525090565b5b8082111561166f576000816000905550600101611657565b5090565b600061168661168184611f22565b611efd565b90508281526020810184848401111561169e57600080fd5b6116a984828561215d565b509392505050565b600082601f8301126116c257600080fd5b81356116d2848260208601611673565b91505092915050565b6000813590506116ea81612341565b92915050565b6000806040838503121561170357600080fd5b600083013567ffffffffffffffff81111561171d57600080fd5b611729858286016116b1565b925050602083013567ffffffffffffffff81111561174657600080fd5b611752858286016116b1565b9150509250929050565b60008060006060848603121561177157600080fd5b600084013567ffffffffffffffff81111561178b57600080fd5b611797868287016116b1565b935050602084013567ffffffffffffffff8111156117b457600080fd5b6117c0868287016116b1565b925050604084013567ffffffffffffffff8111156117dd57600080fd5b6117e9868287016116b1565b9150509250925092565b60006020828403121561180557600080fd5b6000611813848285016116db565b91505092915050565b6000611828838361185c565b60208301905092915050565b60006118408383611b6e565b905092915050565b60006118548383611c50565b905092915050565b61186581612121565b82525050565b61187481612121565b82525050565b600061188582611f98565b61188f8185611feb565b935061189a83611f53565b8060005b838110156118cb5781516118b2888261181c565b97506118bd83611fc4565b92505060018101905061189e565b5085935050505092915050565b60006118e382611fa3565b6118ed8185611ffc565b9350836020820285016118ff85611f63565b8060005b8581101561193b578484038952815161191c8582611834565b945061192783611fd1565b925060208a01995050600181019050611903565b50829750879550505050505092915050565b600061195882611fae565b611962818561200d565b93508360208202850161197485611f73565b8060005b858110156119b057848403895281516119918582611848565b945061199c83611fde565b925060208a01995050600181019050611978565b50829750879550505050505092915050565b60006119cd82611fb9565b6119d7818561201e565b93506119e781856020860161216c565b6119f081612307565b840191505092915050565b6000611a0682611fb9565b611a10818561202f565b9350611a2081856020860161216c565b611a2981612307565b840191505092915050565b60008154611a418161219f565b611a4b818661202f565b94506001821660008114611a665760018114611a7857611aab565b60ff1983168652602086019350611aab565b611a8185611f83565b60005b83811015611aa357815481890152600182019150602081019050611a84565b808801955050505b50505092915050565b6000611ac160078361202f565b9150611acc82612318565b602082019050919050565b600060c083016000830151611aef6000860182611ca7565b506020830151611b02602086018261185c565b5060408301518482036040860152611b1a82826119c2565b91505060608301518482036060860152611b3482826119c2565b91505060808301518482036080860152611b4e82826119c2565b91505060a0830151611b6360a0860182611ca7565b508091505092915050565b60006080830160008301518482036000860152611b8b82826119c2565b91505060208301518482036020860152611ba582826119c2565b91505060408301518482036040860152611bbf82826119c2565b9150506060830151611bd46060860182611ca7565b508091505092915050565b60006080830160008301518482036000860152611bfc82826119c2565b91505060208301518482036020860152611c1682826119c2565b91505060408301518482036040860152611c3082826119c2565b9150506060830151611c456060860182611ca7565b508091505092915050565b60006060830160008301518482036000860152611c6d82826119c2565b9150506020830151611c826020860182611ca7565b5060408301518482036040860152611c9a82826119c2565b9150508091505092915050565b611cb081612153565b82525050565b611cbf81612153565b82525050565b60006020820190508181036000830152611cdf81846118d8565b905092915050565b60006020820190508181036000830152611d01818461194d565b905092915050565b60006080820190508181036000830152611d2381876119fb565b90508181036020830152611d3781866119fb565b90508181036040830152611d4b81856119fb565b9050611d5a6060830184611cb6565b95945050505050565b60006060820190508181036000830152611d7d81866119fb565b9050611d8c6020830185611cb6565b8181036040830152611d9e81846119fb565b9050949350505050565b60006040820190508181036000830152611dc28185611a34565b9050611dd16020830184611cb6565b9392505050565b60006020820190508181036000830152611df181611ab4565b9050919050565b60006020820190508181036000830152611e128184611ad7565b905092915050565b60006020820190508181036000830152611e348184611bdf565b905092915050565b6000602082019050611e516000830184611cb6565b92915050565b600060c082019050611e6c6000830189611cb6565b611e79602083018861186b565b8181036040830152611e8b81876119fb565b90508181036060830152611e9f81866119fb565b90508181036080830152611eb381856119fb565b9050611ec260a0830184611cb6565b979650505050505050565b6000604082019050611ee26000830185611cb6565b8181036020830152611ef4818461187a565b90509392505050565b6000611f07611f18565b9050611f1382826121d1565b919050565b6000604051905090565b600067ffffffffffffffff821115611f3d57611f3c6122d8565b5b611f4682612307565b9050602081019050919050565b6000819050602082019050919050565b6000819050602082019050919050565b6000819050602082019050919050565b60008190508160005260206000209050919050565b600081519050919050565b600081519050919050565b600081519050919050565b600081519050919050565b6000602082019050919050565b6000602082019050919050565b6000602082019050919050565b600082825260208201905092915050565b600082825260208201905092915050565b600082825260208201905092915050565b600082825260208201905092915050565b600082825260208201905092915050565b600061204b82612153565b915061205683612153565b9250827fffffffffffffffffffffffffffffffffffffffffffffffffffffffffffffffff0382111561208b5761208a61224b565b5b828201905092915050565b60006120a182612153565b91506120ac83612153565b9250826120bc576120bb61227a565b5b828204905092915050565b60006120d282612153565b91506120dd83612153565b9250817fffffffffffffffffffffffffffffffffffffffffffffffffffffffffffffffff04831182151516156121165761211561224b565b5b828202905092915050565b600061212c82612133565b9050919050565b600073ffffffffffffffffffffffffffffffffffffffff82169050919050565b6000819050919050565b82818337600083830152505050565b60005b8381101561218a57808201518184015260208101905061216f565b83811115612199576000848401525b50505050565b600060028204905060018216806121b757607f821691505b602082108114156121cb576121ca6122a9565b5b50919050565b6121da82612307565b810181811067ffffffffffffffff821117156121f9576121f86122d8565b5b80604052505050565b600061220d82612153565b91507fffffffffffffffffffffffffffffffffffffffffffffffffffffffffffffffff8214156122405761223f61224b565b5b600182019050919050565b7f4e487b7100000000000000000000000000000000000000000000000000000000600052601160045260246000fd5b7f4e487b7100000000000000000000000000000000000000000000000000000000600052601260045260246000fd5b7f4e487b7100000000000000000000000000000000000000000000000000000000600052602260045260246000fd5b7f4e487b7100000000000000000000000000000000000000000000000000000000600052604160045260246000fd5b6000601f19601f8301169050919050565b7f496e76616c696400000000000000000000000000000000000000000000000000600082015250565b61234a81612153565b811461235557600080fd5b5056fea2646970667358221220f5f421d2dd0a2acaf374d727ffa4be0f17ac26f539bed10e7198e7a40093971a64736f6c63430008040033",
  "linkReferences": {},
  "deployedLinkReferences": {}
}